{
  "_format": "hh-sol-artifact-1",
  "contractName": "DexAggregatorFactory",
  "sourceName": "contracts/DexAggregator.sol",
  "abi": [
    {
      "anonymous": false,
      "inputs": [
        {
          "indexed": true,
          "internalType": "address",
          "name": "contractAddress",
          "type": "address"
        }
      ],
      "name": "DexAggregatorDeployed",
      "type": "event"
    },
    {
      "inputs": [],
      "name": "deployDexAggregator",
      "outputs": [],
      "stateMutability": "nonpayable",
      "type": "function"
    },
    {
      "inputs": [],
      "name": "deployedDexAggregator",
      "outputs": [
        {
          "internalType": "address",
          "name": "",
          "type": "address"
        }
      ],
      "stateMutability": "view",
      "type": "function"
    },
    {
      "inputs": [],
      "name": "getDeployedDexAggregator",
      "outputs": [
        {
          "internalType": "address",
          "name": "",
          "type": "address"
        }
      ],
      "stateMutability": "view",
      "type": "function"
    }
  ],
  "bytecode": "0x608060405234801561000f575f80fd5b5061206e8061001d5f395ff3fe608060405234801561000f575f80fd5b506004361061003f575f3560e01c8063b3444b5e14610043578063c77633511461004d578063e3c353201461006b575b5f80fd5b61004b610089565b005b610055610156565b60405161006291906101ec565b60405180910390f35b610073610179565b60405161008091906101ec565b60405180910390f35b5f604051610096906101a0565b604051809103905ff0801580156100af573d5f803e3d5ffd5b509050805f806101000a81548173ffffffffffffffffffffffffffffffffffffffff021916908373ffffffffffffffffffffffffffffffffffffffff1602179055505f8054906101000a900473ffffffffffffffffffffffffffffffffffffffff1673ffffffffffffffffffffffffffffffffffffffff167f53d4f1ed4e7b35a34a54e97af06d5718d67d6976512524ed63dfc59bbd5f66b660405160405180910390a250565b5f8054906101000a900473ffffffffffffffffffffffffffffffffffffffff1681565b5f805f9054906101000a900473ffffffffffffffffffffffffffffffffffffffff16905090565b611e338061020683390190565b5f73ffffffffffffffffffffffffffffffffffffffff82169050919050565b5f6101d6826101ad565b9050919050565b6101e6816101cc565b82525050565b5f6020820190506101ff5f8301846101dd565b9291505056fe608060405234801561000f575f80fd5b50611e168061001d5f395ff3fe608060405234801561000f575f80fd5b5060043610610091575f3560e01c806377943118116100645780637794311814610152578063a66f4d621461016e578063aa6ca8081461018a578063fa3d24f2146101a8578063fda493c9146101c457610091565b80630ddd03ba146100955780634f64b2be146100cd5780636338a7c0146100ff57806364b2a73c14610134575b5f80fd5b6100af60048036038101906100aa9190611053565b6101e2565b6040516100c49998979695949392919061116e565b60405180910390f35b6100e760048036038101906100e29190611053565b61033d565b6040516100f693929190611200565b60405180910390f35b61011960048036038101906101149190611053565b61049c565b60405161012b96959493929190611243565b60405180910390f35b61013c610588565b604051610149919061149b565b60405180910390f35b61016c6004803603810190610167919061163b565b6107f0565b005b610188600480360381019061018391906116f4565b610a96565b005b610192610bce565b60405161019f91906118a8565b60405180910390f35b6101c260048036038101906101bd91906118c8565b610d9d565b005b6101cc610ea7565b6040516101d99190611a91565b60405180910390f35b600281815481106101f1575f80fd5b905f5260205f2090600902015f91509050805f015f9054906101000a900473ffffffffffffffffffffffffffffffffffffffff1690806001015f9054906101000a900473ffffffffffffffffffffffffffffffffffffffff1690806002015f9054906101000a900473ffffffffffffffffffffffffffffffffffffffff1690806003015f9054906101000a900473ffffffffffffffffffffffffffffffffffffffff16908060040154908060050154908060060154908060070154908060080180546102bc90611ade565b80601f01602080910402602001604051908101604052809291908181526020018280546102e890611ade565b80156103335780601f1061030a57610100808354040283529160200191610333565b820191905f5260205f20905b81548152906001019060200180831161031657829003601f168201915b5050505050905089565b5f818154811061034b575f80fd5b905f5260205f2090600302015f91509050805f01805461036a90611ade565b80601f016020809104026020016040519081016040528092919081815260200182805461039690611ade565b80156103e15780601f106103b8576101008083540402835291602001916103e1565b820191905f5260205f20905b8154815290600101906020018083116103c457829003601f168201915b5050505050908060010180546103f690611ade565b80601f016020809104026020016040519081016040528092919081815260200182805461042290611ade565b801561046d5780601f106104445761010080835404028352916020019161046d565b820191905f5260205f20905b81548152906001019060200180831161045057829003601f168201915b505050505090806002015f9054906101000a900473ffffffffffffffffffffffffffffffffffffffff16905083565b600181815481106104ab575f80fd5b905f5260205f2090600602015f91509050805f015f9054906101000a900473ffffffffffffffffffffffffffffffffffffffff169080600101549080600201549080600301549080600401549080600501805461050790611ade565b80601f016020809104026020016040519081016040528092919081815260200182805461053390611ade565b801561057e5780601f106105555761010080835404028352916020019161057e565b820191905f5260205f20905b81548152906001019060200180831161056157829003601f168201915b5050505050905086565b60606002805480602002602001604051908101604052809291908181526020015f905b828210156107e7578382905f5260205f209060090201604051806101200160405290815f82015f9054906101000a900473ffffffffffffffffffffffffffffffffffffffff1673ffffffffffffffffffffffffffffffffffffffff1673ffffffffffffffffffffffffffffffffffffffff168152602001600182015f9054906101000a900473ffffffffffffffffffffffffffffffffffffffff1673ffffffffffffffffffffffffffffffffffffffff1673ffffffffffffffffffffffffffffffffffffffff168152602001600282015f9054906101000a900473ffffffffffffffffffffffffffffffffffffffff1673ffffffffffffffffffffffffffffffffffffffff1673ffffffffffffffffffffffffffffffffffffffff168152602001600382015f9054906101000a900473ffffffffffffffffffffffffffffffffffffffff1673ffffffffffffffffffffffffffffffffffffffff1673ffffffffffffffffffffffffffffffffffffffff1681526020016004820154815260200160058201548152602001600682015481526020016007820154815260200160088201805461075890611ade565b80601f016020809104026020016040519081016040528092919081815260200182805461078490611ade565b80156107cf5780601f106107a6576101008083540402835291602001916107cf565b820191905f5260205f20905b8154815290600101906020018083116107b257829003601f168201915b505050505081525050815260200190600101906105ab565b50505050905090565b60026040518061012001604052803373ffffffffffffffffffffffffffffffffffffffff1681526020018973ffffffffffffffffffffffffffffffffffffffff1681526020018873ffffffffffffffffffffffffffffffffffffffff1681526020018773ffffffffffffffffffffffffffffffffffffffff16815260200186815260200185815260200142815260200184815260200183815250908060018154018082558091505060019003905f5260205f2090600902015f909190919091505f820151815f015f6101000a81548173ffffffffffffffffffffffffffffffffffffffff021916908373ffffffffffffffffffffffffffffffffffffffff1602179055506020820151816001015f6101000a81548173ffffffffffffffffffffffffffffffffffffffff021916908373ffffffffffffffffffffffffffffffffffffffff1602179055506040820151816002015f6101000a81548173ffffffffffffffffffffffffffffffffffffffff021916908373ffffffffffffffffffffffffffffffffffffffff1602179055506060820151816003015f6101000a81548173ffffffffffffffffffffffffffffffffffffffff021916908373ffffffffffffffffffffffffffffffffffffffff1602179055506080820151816004015560a0820151816005015560c0820151816006015560e08201518160070155610100820151816008019081610a049190611cab565b5050508573ffffffffffffffffffffffffffffffffffffffff168773ffffffffffffffffffffffffffffffffffffffff163373ffffffffffffffffffffffffffffffffffffffff167f8112f18734449546fff9aeb20b8df43a86238ed2c24dc7f330fe55c43978bc84888888428989604051610a8596959493929190611d7a565b60405180910390a450505050505050565b60016040518060c001604052808873ffffffffffffffffffffffffffffffffffffffff16815260200187815260200186815260200185815260200184815260200183815250908060018154018082558091505060019003905f5260205f2090600602015f909190919091505f820151815f015f6101000a81548173ffffffffffffffffffffffffffffffffffffffff021916908373ffffffffffffffffffffffffffffffffffffffff1602179055506020820151816001015560408201518160020155606082015181600301556080820151816004015560a0820151816005019081610b829190611cab565b5050507fcbfb872d421d036091ac07dd081cc344eeff66290d74e295f4a0b64708e41b92868686868686604051610bbe96959493929190611243565b60405180910390a1505050505050565b60605f805480602002602001604051908101604052809291908181526020015f905b82821015610d94578382905f5260205f2090600302016040518060600160405290815f82018054610c2090611ade565b80601f0160208091040260200160405190810160405280929190818152602001828054610c4c90611ade565b8015610c975780601f10610c6e57610100808354040283529160200191610c97565b820191905f5260205f20905b815481529060010190602001808311610c7a57829003601f168201915b50505050508152602001600182018054610cb090611ade565b80601f0160208091040260200160405190810160405280929190818152602001828054610cdc90611ade565b8015610d275780601f10610cfe57610100808354040283529160200191610d27565b820191905f5260205f20905b815481529060010190602001808311610d0a57829003601f168201915b50505050508152602001600282015f9054906101000a900473ffffffffffffffffffffffffffffffffffffffff1673ffffffffffffffffffffffffffffffffffffffff1673ffffffffffffffffffffffffffffffffffffffff168152505081526020019060010190610bf0565b50505050905090565b5f60405180606001604052808581526020018481526020018373ffffffffffffffffffffffffffffffffffffffff16815250908060018154018082558091505060019003905f5260205f2090600302015f909190919091505f820151815f019081610e089190611cab565b506020820151816001019081610e1e9190611cab565b506040820151816002015f6101000a81548173ffffffffffffffffffffffffffffffffffffffff021916908373ffffffffffffffffffffffffffffffffffffffff16021790555050507f7ab7074f7826dda120af25c3924584f012f6cc3108c1185301c5461ac75f8007838383604051610e9a93929190611200565b60405180910390a1505050565b60606001805480602002602001604051908101604052809291908181526020015f905b82821015611006578382905f5260205f2090600602016040518060c00160405290815f82015f9054906101000a900473ffffffffffffffffffffffffffffffffffffffff1673ffffffffffffffffffffffffffffffffffffffff1673ffffffffffffffffffffffffffffffffffffffff16815260200160018201548152602001600282015481526020016003820154815260200160048201548152602001600582018054610f7790611ade565b80601f0160208091040260200160405190810160405280929190818152602001828054610fa390611ade565b8015610fee5780601f10610fc557610100808354040283529160200191610fee565b820191905f5260205f20905b815481529060010190602001808311610fd157829003601f168201915b50505050508152505081526020019060010190610eca565b50505050905090565b5f604051905090565b5f80fd5b5f80fd5b5f819050919050565b61103281611020565b811461103c575f80fd5b50565b5f8135905061104d81611029565b92915050565b5f6020828403121561106857611067611018565b5b5f6110758482850161103f565b91505092915050565b5f73ffffffffffffffffffffffffffffffffffffffff82169050919050565b5f6110a78261107e565b9050919050565b6110b78161109d565b82525050565b6110c681611020565b82525050565b5f819050919050565b6110de816110cc565b82525050565b5f81519050919050565b5f82825260208201905092915050565b5f5b8381101561111b578082015181840152602081019050611100565b5f8484015250505050565b5f601f19601f8301169050919050565b5f611140826110e4565b61114a81856110ee565b935061115a8185602086016110fe565b61116381611126565b840191505092915050565b5f610120820190506111825f83018c6110ae565b61118f602083018b6110ae565b61119c604083018a6110ae565b6111a960608301896110ae565b6111b660808301886110bd565b6111c360a08301876110bd565b6111d060c08301866110bd565b6111dd60e08301856110d5565b8181036101008301526111f08184611136565b90509a9950505050505050505050565b5f6060820190508181035f8301526112188186611136565b9050818103602083015261122c8185611136565b905061123b60408301846110ae565b949350505050565b5f60c0820190506112565f8301896110ae565b61126360208301886110bd565b61127060408301876110bd565b61127d60608301866110bd565b61128a60808301856110bd565b81810360a083015261129c8184611136565b9050979650505050505050565b5f81519050919050565b5f82825260208201905092915050565b5f819050602082019050919050565b6112db8161109d565b82525050565b6112ea81611020565b82525050565b6112f9816110cc565b82525050565b5f82825260208201905092915050565b5f611319826110e4565b61132381856112ff565b93506113338185602086016110fe565b61133c81611126565b840191505092915050565b5f61012083015f83015161135d5f8601826112d2565b50602083015161137060208601826112d2565b50604083015161138360408601826112d2565b50606083015161139660608601826112d2565b5060808301516113a960808601826112e1565b5060a08301516113bc60a08601826112e1565b5060c08301516113cf60c08601826112e1565b5060e08301516113e260e08601826112f0565b506101008301518482036101008601526113fc828261130f565b9150508091505092915050565b5f6114148383611347565b905092915050565b5f602082019050919050565b5f611432826112a9565b61143c81856112b3565b93508360208202850161144e856112c3565b805f5b85811015611489578484038952815161146a8582611409565b94506114758361141c565b925060208a01995050600181019050611451565b50829750879550505050505092915050565b5f6020820190508181035f8301526114b38184611428565b905092915050565b6114c48161109d565b81146114ce575f80fd5b50565b5f813590506114df816114bb565b92915050565b6114ee816110cc565b81146114f8575f80fd5b50565b5f81359050611509816114e5565b92915050565b5f80fd5b5f80fd5b7f4e487b71000000000000000000000000000000000000000000000000000000005f52604160045260245ffd5b61154d82611126565b810181811067ffffffffffffffff8211171561156c5761156b611517565b5b80604052505050565b5f61157e61100f565b905061158a8282611544565b919050565b5f67ffffffffffffffff8211156115a9576115a8611517565b5b6115b282611126565b9050602081019050919050565b828183375f83830152505050565b5f6115df6115da8461158f565b611575565b9050828152602081018484840111156115fb576115fa611513565b5b6116068482856115bf565b509392505050565b5f82601f8301126116225761162161150f565b5b81356116328482602086016115cd565b91505092915050565b5f805f805f805f60e0888a03121561165657611655611018565b5b5f6116638a828b016114d1565b97505060206116748a828b016114d1565b96505060406116858a828b016114d1565b95505060606116968a828b0161103f565b94505060806116a78a828b0161103f565b93505060a06116b88a828b016114fb565b92505060c088013567ffffffffffffffff8111156116d9576116d861101c565b5b6116e58a828b0161160e565b91505092959891949750929550565b5f805f805f8060c0878903121561170e5761170d611018565b5b5f61171b89828a016114d1565b965050602061172c89828a0161103f565b955050604061173d89828a0161103f565b945050606061174e89828a0161103f565b935050608061175f89828a0161103f565b92505060a087013567ffffffffffffffff8111156117805761177f61101c565b5b61178c89828a0161160e565b9150509295509295509295565b5f81519050919050565b5f82825260208201905092915050565b5f819050602082019050919050565b5f606083015f8301518482035f8601526117dc828261130f565b915050602083015184820360208601526117f6828261130f565b915050604083015161180b60408601826112d2565b508091505092915050565b5f61182183836117c2565b905092915050565b5f602082019050919050565b5f61183f82611799565b61184981856117a3565b93508360208202850161185b856117b3565b805f5b8581101561189657848403895281516118778582611816565b945061188283611829565b925060208a0199505060018101905061185e565b50829750879550505050505092915050565b5f6020820190508181035f8301526118c08184611835565b905092915050565b5f805f606084860312156118df576118de611018565b5b5f84013567ffffffffffffffff8111156118fc576118fb61101c565b5b6119088682870161160e565b935050602084013567ffffffffffffffff8111156119295761192861101c565b5b6119358682870161160e565b9250506040611946868287016114d1565b9150509250925092565b5f81519050919050565b5f82825260208201905092915050565b5f819050602082019050919050565b5f60c083015f83015161198e5f8601826112d2565b5060208301516119a160208601826112e1565b5060408301516119b460408601826112e1565b5060608301516119c760608601826112e1565b5060808301516119da60808601826112e1565b5060a083015184820360a08601526119f2828261130f565b9150508091505092915050565b5f611a0a8383611979565b905092915050565b5f602082019050919050565b5f611a2882611950565b611a32818561195a565b935083602082028501611a448561196a565b805f5b85811015611a7f5784840389528151611a6085826119ff565b9450611a6b83611a12565b925060208a01995050600181019050611a47565b50829750879550505050505092915050565b5f6020820190508181035f830152611aa98184611a1e565b905092915050565b7f4e487b71000000000000000000000000000000000000000000000000000000005f52602260045260245ffd5b5f6002820490506001821680611af557607f821691505b602082108103611b0857611b07611ab1565b5b50919050565b5f819050815f5260205f209050919050565b5f6020601f8301049050919050565b5f82821b905092915050565b5f60088302611b6a7fffffffffffffffffffffffffffffffffffffffffffffffffffffffffffffffff82611b2f565b611b748683611b2f565b95508019841693508086168417925050509392505050565b5f819050919050565b5f611baf611baa611ba584611020565b611b8c565b611020565b9050919050565b5f819050919050565b611bc883611b95565b611bdc611bd482611bb6565b848454611b3b565b825550505050565b5f90565b611bf0611be4565b611bfb818484611bbf565b505050565b5b81811015611c1e57611c135f82611be8565b600181019050611c01565b5050565b601f821115611c6357611c3481611b0e565b611c3d84611b20565b81016020851015611c4c578190505b611c60611c5885611b20565b830182611c00565b50505b505050565b5f82821c905092915050565b5f611c835f1984600802611c68565b1980831691505092915050565b5f611c9b8383611c74565b9150826002028217905092915050565b611cb4826110e4565b67ffffffffffffffff811115611ccd57611ccc611517565b5b611cd78254611ade565b611ce2828285611c22565b5f60209050601f831160018114611d13575f8415611d01578287015190505b611d0b8582611c90565b865550611d72565b601f198416611d2186611b0e565b5f5b82811015611d4857848901518255600182019150602085019450602081019050611d23565b86831015611d655784890151611d61601f891682611c74565b8355505b6001600288020188555050505b505050505050565b5f60c082019050611d8d5f8301896110ae565b611d9a60208301886110bd565b611da760408301876110bd565b611db460608301866110bd565b611dc160808301856110d5565b81810360a0830152611dd38184611136565b905097965050505050505056fea2646970667358221220384a6e1b1d7800bbf5751d7f4024c5f8f6b9870037ac17a6976911814ada78cc64736f6c63430008140033a2646970667358221220625fee591d5562b94f353e9bf5c462d3ac7ab1b9233cfcc3013013d8270e5e2164736f6c63430008140033",
  "linkReferences": {},
  "deployedLinkReferences": {}
}