{
  "_format": "hh-sol-artifact-1",
  "contractName": "DexAggregator",
  "sourceName": "contracts/DexAggregator.sol",
  "abi": [
    {
      "anonymous": false,
      "inputs": [
        {
          "indexed": true,
          "internalType": "address",
          "name": "user",
          "type": "address"
        },
        {
          "indexed": true,
          "internalType": "address",
          "name": "ammAddress",
          "type": "address"
        },
        {
          "indexed": true,
          "internalType": "address",
          "name": "tokenIn",
          "type": "address"
        },
        {
          "indexed": false,
          "internalType": "address",
          "name": "tokenOut",
          "type": "address"
        },
        {
          "indexed": false,
          "internalType": "uint256",
          "name": "amountIn",
          "type": "uint256"
        },
        {
          "indexed": false,
          "internalType": "uint256",
          "name": "amountOut",
          "type": "uint256"
        },
        {
          "indexed": false,
          "internalType": "uint256",
          "name": "timestamp",
          "type": "uint256"
        },
        {
          "indexed": false,
          "internalType": "bytes32",
          "name": "txHash",
          "type": "bytes32"
        },
        {
          "indexed": false,
          "internalType": "string",
          "name": "ammName",
          "type": "string"
        }
      ],
      "name": "SwapExecuted",
      "type": "event"
    },
    {
      "anonymous": false,
      "inputs": [
        {
          "indexed": false,
          "internalType": "string",
          "name": "name",
          "type": "string"
        },
        {
          "indexed": false,
          "internalType": "string",
          "name": "symbol",
          "type": "string"
        },
        {
          "indexed": false,
          "internalType": "address",
          "name": "tokenAddress",
          "type": "address"
        }
      ],
      "name": "TokenAdded",
      "type": "event"
    },
    {
      "anonymous": false,
      "inputs": [
        {
          "indexed": false,
          "internalType": "address",
          "name": "ammAddress",
          "type": "address"
        },
        {
          "indexed": false,
          "internalType": "uint256",
          "name": "makerFee",
          "type": "uint256"
        },
        {
          "indexed": false,
          "internalType": "uint256",
          "name": "takerFee",
          "type": "uint256"
        },
        {
          "indexed": false,
          "internalType": "uint256",
          "name": "liquidityToken1",
          "type": "uint256"
        },
        {
          "indexed": false,
          "internalType": "uint256",
          "name": "liquidityToken2",
          "type": "uint256"
        },
        {
          "indexed": false,
          "internalType": "string",
          "name": "name",
          "type": "string"
        }
      ],
      "name": "ammAdded",
      "type": "event"
    },
    {
      "inputs": [
        {
          "internalType": "address",
          "name": "_ammAddress",
          "type": "address"
        },
        {
          "internalType": "uint256",
          "name": "_makerFee",
          "type": "uint256"
        },
        {
          "internalType": "uint256",
          "name": "_takerFee",
          "type": "uint256"
        },
        {
          "internalType": "uint256",
          "name": "_liquidityToken1",
          "type": "uint256"
        },
        {
          "internalType": "uint256",
          "name": "_liquidityToken2",
          "type": "uint256"
        },
        {
          "internalType": "string",
          "name": "_name",
          "type": "string"
        }
      ],
      "name": "addAmm",
      "outputs": [],
      "stateMutability": "nonpayable",
      "type": "function"
    },
    {
      "inputs": [
        {
          "internalType": "string",
          "name": "_name",
          "type": "string"
        },
        {
          "internalType": "string",
          "name": "_symbol",
          "type": "string"
        },
        {
          "internalType": "address",
          "name": "_tokenAddress",
          "type": "address"
        }
      ],
      "name": "addToken",
      "outputs": [],
      "stateMutability": "nonpayable",
      "type": "function"
    },
    {
      "inputs": [
        {
          "internalType": "uint256",
          "name": "",
          "type": "uint256"
        }
      ],
      "name": "amms",
      "outputs": [
        {
          "internalType": "address",
          "name": "ammAddress",
          "type": "address"
        },
        {
          "internalType": "uint256",
          "name": "makerFee",
          "type": "uint256"
        },
        {
          "internalType": "uint256",
          "name": "takerFee",
          "type": "uint256"
        },
        {
          "internalType": "uint256",
          "name": "liquidityToken1",
          "type": "uint256"
        },
        {
          "internalType": "uint256",
          "name": "liquidityToken2",
          "type": "uint256"
        },
        {
          "internalType": "string",
          "name": "name",
          "type": "string"
        }
      ],
      "stateMutability": "view",
      "type": "function"
    },
    {
      "inputs": [
        {
          "internalType": "address",
          "name": "ammAddress",
          "type": "address"
        },
        {
          "internalType": "address",
          "name": "tokenIn",
          "type": "address"
        },
        {
          "internalType": "address",
          "name": "tokenOut",
          "type": "address"
        },
        {
          "internalType": "uint256",
          "name": "amountIn",
          "type": "uint256"
        },
        {
          "internalType": "uint256",
          "name": "amountOut",
          "type": "uint256"
        },
        {
          "internalType": "bytes32",
          "name": "transactionHash",
          "type": "bytes32"
        },
        {
          "internalType": "string",
          "name": "ammName",
          "type": "string"
        }
      ],
      "name": "executeSwap",
      "outputs": [],
      "stateMutability": "nonpayable",
      "type": "function"
    },
    {
      "inputs": [],
      "name": "getAmms",
      "outputs": [
        {
          "components": [
            {
              "internalType": "address",
              "name": "ammAddress",
              "type": "address"
            },
            {
              "internalType": "uint256",
              "name": "makerFee",
              "type": "uint256"
            },
            {
              "internalType": "uint256",
              "name": "takerFee",
              "type": "uint256"
            },
            {
              "internalType": "uint256",
              "name": "liquidityToken1",
              "type": "uint256"
            },
            {
              "internalType": "uint256",
              "name": "liquidityToken2",
              "type": "uint256"
            },
            {
              "internalType": "string",
              "name": "name",
              "type": "string"
            }
          ],
          "internalType": "struct DexAggregator.AMM[]",
          "name": "",
          "type": "tuple[]"
        }
      ],
      "stateMutability": "view",
      "type": "function"
    },
    {
      "inputs": [],
      "name": "getSwapHistory",
      "outputs": [
        {
          "components": [
            {
              "internalType": "address",
              "name": "user",
              "type": "address"
            },
            {
              "internalType": "address",
              "name": "ammAddress",
              "type": "address"
            },
            {
              "internalType": "address",
              "name": "tokenIn",
              "type": "address"
            },
            {
              "internalType": "address",
              "name": "tokenOut",
              "type": "address"
            },
            {
              "internalType": "uint256",
              "name": "amountIn",
              "type": "uint256"
            },
            {
              "internalType": "uint256",
              "name": "amountOut",
              "type": "uint256"
            },
            {
              "internalType": "uint256",
              "name": "timestamp",
              "type": "uint256"
            },
            {
              "internalType": "bytes32",
              "name": "txHash",
              "type": "bytes32"
            },
            {
              "internalType": "string",
              "name": "ammName",
              "type": "string"
            }
          ],
          "internalType": "struct DexAggregator.Swap[]",
          "name": "",
          "type": "tuple[]"
        }
      ],
      "stateMutability": "view",
      "type": "function"
    },
    {
      "inputs": [],
      "name": "getTokens",
      "outputs": [
        {
          "components": [
            {
              "internalType": "string",
              "name": "name",
              "type": "string"
            },
            {
              "internalType": "string",
              "name": "symbol",
              "type": "string"
            },
            {
              "internalType": "address",
              "name": "tokenAddress",
              "type": "address"
            }
          ],
          "internalType": "struct DexAggregator.Token[]",
          "name": "",
          "type": "tuple[]"
        }
      ],
      "stateMutability": "view",
      "type": "function"
    },
    {
      "inputs": [
        {
          "internalType": "uint256",
          "name": "",
          "type": "uint256"
        }
      ],
      "name": "swapHistory",
      "outputs": [
        {
          "internalType": "address",
          "name": "user",
          "type": "address"
        },
        {
          "internalType": "address",
          "name": "ammAddress",
          "type": "address"
        },
        {
          "internalType": "address",
          "name": "tokenIn",
          "type": "address"
        },
        {
          "internalType": "address",
          "name": "tokenOut",
          "type": "address"
        },
        {
          "internalType": "uint256",
          "name": "amountIn",
          "type": "uint256"
        },
        {
          "internalType": "uint256",
          "name": "amountOut",
          "type": "uint256"
        },
        {
          "internalType": "uint256",
          "name": "timestamp",
          "type": "uint256"
        },
        {
          "internalType": "bytes32",
          "name": "txHash",
          "type": "bytes32"
        },
        {
          "internalType": "string",
          "name": "ammName",
          "type": "string"
        }
      ],
      "stateMutability": "view",
      "type": "function"
    },
    {
      "inputs": [
        {
          "internalType": "uint256",
          "name": "",
          "type": "uint256"
        }
      ],
      "name": "tokens",
      "outputs": [
        {
          "internalType": "string",
          "name": "name",
          "type": "string"
        },
        {
          "internalType": "string",
          "name": "symbol",
          "type": "string"
        },
        {
          "internalType": "address",
          "name": "tokenAddress",
          "type": "address"
        }
      ],
      "stateMutability": "view",
      "type": "function"
    }
  ],
  "bytecode": "0x608060405234801561001057600080fd5b506114ea806100206000396000f3fe608060405234801561001057600080fd5b50600436106100a35760003560e01c806364b2a73c1161007657806386a8cdbc1161005b57806386a8cdbc1461014d578063aa6ca80814610172578063fa3d24f21461018757600080fd5b806364b2a73c14610125578063779431181461013a57600080fd5b80630ddd03ba146100a8578063166e7782146100d95780632beac216146100ee5780634f64b2be14610103575b600080fd5b6100bb6100b6366004610df8565b61019a565b6040516100d099989796959493929190610e57565b60405180910390f35b6100ec6100e7366004610f7c565b610294565b005b6100f661043e565b6040516100d09190610fef565b610116610111366004610df8565b61056e565b6040516100d093929190611097565b61012d6106c1565b6040516100d091906110d6565b6100ec610148366004611199565b610814565b61016061015b366004610df8565b610a97565b6040516100d096959493929190611225565b61017a610b75565b6040516100d0919061126b565b6100ec6101953660046112f7565b610d05565b600281815481106101aa57600080fd5b60009182526020909120600990910201805460018201546002830154600384015460048501546005860154600687015460078801546008890180546001600160a01b03998a169b50978916999689169890951696939592949193909291906102119061136b565b80601f016020809104026020016040519081016040528092919081815260200182805461023d9061136b565b801561028a5780601f1061025f5761010080835404028352916020019161028a565b820191906000526020600020905b81548152906001019060200180831161026d57829003601f168201915b5050505050905089565b6040805160c0810182526001600160a01b03888116825260208201888152928201878152606083018781526080840187815260a0850187815260018054808201825560009190915286517fb10e2d527612073b26eecdfd717e6a320cf44b4afac2b0732d9fcbe2b7fa0cf66006909202918201805473ffffffffffffffffffffffffffffffffffffffff19169190971617865596517fb10e2d527612073b26eecdfd717e6a320cf44b4afac2b0732d9fcbe2b7fa0cf788015592517fb10e2d527612073b26eecdfd717e6a320cf44b4afac2b0732d9fcbe2b7fa0cf887015590517fb10e2d527612073b26eecdfd717e6a320cf44b4afac2b0732d9fcbe2b7fa0cf9860155517fb10e2d527612073b26eecdfd717e6a320cf44b4afac2b0732d9fcbe2b7fa0cfa85015551919290917fb10e2d527612073b26eecdfd717e6a320cf44b4afac2b0732d9fcbe2b7fa0cfb909101906103f290826113f4565b5050507f9bb5e279e18842ff85ccb6ffaab6adeac65d643e110e1fb012adf08af75edb4186868686868660405161042e96959493929190611225565b60405180910390a1505050505050565b60606001805480602002602001604051908101604052809291908181526020016000905b828210156105655760008481526020908190206040805160c0810182526006860290920180546001600160a01b03168352600181015493830193909352600283015490820152600382015460608201526004820154608082015260058201805491929160a0840191906104d49061136b565b80601f01602080910402602001604051908101604052809291908181526020018280546105009061136b565b801561054d5780601f106105225761010080835404028352916020019161054d565b820191906000526020600020905b81548152906001019060200180831161053057829003601f168201915b50505050508152505081526020019060010190610462565b50505050905090565b6000818154811061057e57600080fd5b90600052602060002090600302016000915090508060000180546105a19061136b565b80601f01602080910402602001604051908101604052809291908181526020018280546105cd9061136b565b801561061a5780601f106105ef5761010080835404028352916020019161061a565b820191906000526020600020905b8154815290600101906020018083116105fd57829003601f168201915b50505050509080600101805461062f9061136b565b80601f016020809104026020016040519081016040528092919081815260200182805461065b9061136b565b80156106a85780601f1061067d576101008083540402835291602001916106a8565b820191906000526020600020905b81548152906001019060200180831161068b57829003601f168201915b505050600290930154919250506001600160a01b031683565b60606002805480602002602001604051908101604052809291908181526020016000905b8282101561056557600084815260209081902060408051610120810182526009860290920180546001600160a01b039081168452600182015481169484019490945260028101548416918301919091526003810154909216606082015260048201546080820152600582015460a0820152600682015460c0820152600782015460e0820152600882018054919291610100840191906107839061136b565b80601f01602080910402602001604051908101604052809291908181526020018280546107af9061136b565b80156107fc5780601f106107d1576101008083540402835291602001916107fc565b820191906000526020600020905b8154815290600101906020018083116107df57829003601f168201915b505050505081525050815260200190600101906106e5565b60408051610120810182523381526001600160a01b0389811660208301908152898216938301938452888216606084019081526080840189815260a085018981524260c0870190815260e087018a815261010088018a815260028054600181018255600091909152895160099091027f405787fa12a823e0f2b7631cc41b3ba8828b3321ca811111fa75cd3aa3bb5ace81018054928b1673ffffffffffffffffffffffffffffffffffffffff1993841617815598517f405787fa12a823e0f2b7631cc41b3ba8828b3321ca811111fa75cd3aa3bb5acf82018054918c169184169190911790559a517f405787fa12a823e0f2b7631cc41b3ba8828b3321ca811111fa75cd3aa3bb5ad08c018054918b1691831691909117905595517f405787fa12a823e0f2b7631cc41b3ba8828b3321ca811111fa75cd3aa3bb5ad18b0180549190991696169590951790965591517f405787fa12a823e0f2b7631cc41b3ba8828b3321ca811111fa75cd3aa3bb5ad2880155517f405787fa12a823e0f2b7631cc41b3ba8828b3321ca811111fa75cd3aa3bb5ad3870155517f405787fa12a823e0f2b7631cc41b3ba8828b3321ca811111fa75cd3aa3bb5ad486015591517f405787fa12a823e0f2b7631cc41b3ba8828b3321ca811111fa75cd3aa3bb5ad58501559051919290917f405787fa12a823e0f2b7631cc41b3ba8828b3321ca811111fa75cd3aa3bb5ad690910190610a2c90826113f4565b505050856001600160a01b0316876001600160a01b0316336001600160a01b03167f8112f18734449546fff9aeb20b8df43a86238ed2c24dc7f330fe55c43978bc84888888428989604051610a8696959493929190611225565b60405180910390a450505050505050565b60018181548110610aa757600080fd5b60009182526020909120600690910201805460018201546002830154600384015460048501546005860180546001600160a01b039096169750939592949193909291610af29061136b565b80601f0160208091040260200160405190810160405280929190818152602001828054610b1e9061136b565b8015610b6b5780601f10610b4057610100808354040283529160200191610b6b565b820191906000526020600020905b815481529060010190602001808311610b4e57829003601f168201915b5050505050905086565b60606000805480602002602001604051908101604052809291908181526020016000905b828210156105655783829060005260206000209060030201604051806060016040529081600082018054610bcc9061136b565b80601f0160208091040260200160405190810160405280929190818152602001828054610bf89061136b565b8015610c455780601f10610c1a57610100808354040283529160200191610c45565b820191906000526020600020905b815481529060010190602001808311610c2857829003601f168201915b50505050508152602001600182018054610c5e9061136b565b80601f0160208091040260200160405190810160405280929190818152602001828054610c8a9061136b565b8015610cd75780601f10610cac57610100808354040283529160200191610cd7565b820191906000526020600020905b815481529060010190602001808311610cba57829003601f168201915b5050509183525050600291909101546001600160a01b03166020918201529082526001929092019101610b99565b60408051606081018252848152602081018490526001600160a01b0383169181019190915260008054600181018255908052815160039091027f290decd9548b62a8d60345a988386fc84ba6bc95484008f6362f93160ef3e56301908190610d6d90826113f4565b5060208201516001820190610d8290826113f4565b50604091820151600291909101805473ffffffffffffffffffffffffffffffffffffffff19166001600160a01b03909216919091179055517f7ab7074f7826dda120af25c3924584f012f6cc3108c1185301c5461ac75f800790610deb90859085908590611097565b60405180910390a1505050565b600060208284031215610e0a57600080fd5b5035919050565b6000815180845260005b81811015610e3757602081850181015186830182015201610e1b565b506000602082860101526020601f19601f83011685010191505092915050565b60006101206001600160a01b03808d168452808c166020850152808b166040850152808a166060850152508760808401528660a08401528560c08401528460e084015280610100840152610ead81840185610e11565b9c9b505050505050505050505050565b80356001600160a01b0381168114610ed457600080fd5b919050565b634e487b7160e01b600052604160045260246000fd5b600082601f830112610f0057600080fd5b813567ffffffffffffffff80821115610f1b57610f1b610ed9565b604051601f8301601f19908116603f01168101908282118183101715610f4357610f43610ed9565b81604052838152866020858801011115610f5c57600080fd5b836020870160208301376000602085830101528094505050505092915050565b60008060008060008060c08789031215610f9557600080fd5b610f9e87610ebd565b95506020870135945060408701359350606087013592506080870135915060a087013567ffffffffffffffff811115610fd657600080fd5b610fe289828a01610eef565b9150509295509295509295565b60006020808301818452808551808352604092508286019150828160051b87010184880160005b8381101561108957888303603f19018552815180516001600160a01b0316845287810151888501528681015187850152606080820151908501526080808201519085015260a09081015160c09185018290529061107581860183610e11565b968901969450505090860190600101611016565b509098975050505050505050565b6060815260006110aa6060830186610e11565b82810360208401526110bc8186610e11565b9150506001600160a01b0383166040830152949350505050565b60006020808301818452808551808352604092508286019150828160051b87010184880160005b8381101561108957603f19898403018552815180516001600160a01b0390811685528882015181168986015287820151811688860152606080830151909116908501526080808201519085015260a0808201519085015260c0808201519085015260e08082015190850152610100908101516101209185018290529061118581860183610e11565b9689019694505050908601906001016110fd565b600080600080600080600060e0888a0312156111b457600080fd5b6111bd88610ebd565b96506111cb60208901610ebd565b95506111d960408901610ebd565b9450606088013593506080880135925060a0880135915060c088013567ffffffffffffffff81111561120a57600080fd5b6112168a828b01610eef565b91505092959891949750929550565b6001600160a01b038716815285602082015284604082015283606082015282608082015260c060a0820152600061125f60c0830184610e11565b98975050505050505050565b60006020808301818452808551808352604092508286019150828160051b87010184880160005b8381101561108957603f198984030185528151606081518186526112b882870182610e11565b915050888201518582038a8701526112d08282610e11565b928901516001600160a01b0316958901959095525094870194925090860190600101611292565b60008060006060848603121561130c57600080fd5b833567ffffffffffffffff8082111561132457600080fd5b61133087838801610eef565b9450602086013591508082111561134657600080fd5b5061135386828701610eef565b92505061136260408501610ebd565b90509250925092565b600181811c9082168061137f57607f821691505b60208210810361139f57634e487b7160e01b600052602260045260246000fd5b50919050565b601f8211156113ef57600081815260208120601f850160051c810160208610156113cc5750805b601f850160051c820191505b818110156113eb578281556001016113d8565b5050505b505050565b815167ffffffffffffffff81111561140e5761140e610ed9565b6114228161141c845461136b565b846113a5565b602080601f831160018114611457576000841561143f5750858301515b600019600386901b1c1916600185901b1785556113eb565b600085815260208120601f198616915b8281101561148657888601518255948401946001909101908401611467565b50858210156114a45787850151600019600388901b60f8161c191681555b5050505050600190811b0190555056fea264697066735822122044a05d000aa48abc9be211ca54877791d115f6bc13a7deb365d5661b2fc835b564736f6c63430008140033",
  "linkReferences": {},
  "deployedLinkReferences": {}
}